{
  "contractName": "Election",
  "abi": [
    {
      "inputs": [],
      "stateMutability": "nonpayable",
      "type": "constructor"
    },
    {
      "inputs": [
        {
          "internalType": "uint256",
          "name": "",
          "type": "uint256"
        }
      ],
      "name": "candidates",
      "outputs": [
        {
          "internalType": "uint256",
          "name": "id",
          "type": "uint256"
        },
        {
          "internalType": "string",
          "name": "name",
          "type": "string"
        },
        {
          "internalType": "uint256",
          "name": "voteCount",
          "type": "uint256"
        }
      ],
      "stateMutability": "view",
      "type": "function",
      "constant": true
    },
    {
      "inputs": [],
      "name": "candidatesCount",
      "outputs": [
        {
          "internalType": "uint256",
          "name": "",
          "type": "uint256"
        }
      ],
      "stateMutability": "view",
      "type": "function",
      "constant": true
    }
  ],
  "bytecode": "0x608060405234801561001057600080fd5b506100556040518060400160405280600b81526020017f43616e646964617465203100000000000000000000000000000000000000000081525061009e60201b60201c565b6100996040518060400160405280600b81526020017f43616e646964617465203200000000000000000000000000000000000000000081525061009e60201b60201c565b6102a5565b600160008154809291906100b1906101fe565b9190505550604051806060016040528060015481526020018281526020016000815250600080600154815260200190815260200160002060008201518160000155602082015181600101908051906020019061010e92919061011f565b506040820151816002015590505050565b82805461012b906101cc565b90600052602060002090601f01602090048101928261014d5760008555610194565b82601f1061016657805160ff1916838001178555610194565b82800160010185558215610194579182015b82811115610193578251825591602001919060010190610178565b5b5090506101a191906101a5565b5090565b5b808211156101be5760008160009055506001016101a6565b5090565b6000819050919050565b600060028204905060018216806101e457607f821691505b602082108114156101f8576101f7610276565b5b50919050565b6000610209826101c2565b91507fffffffffffffffffffffffffffffffffffffffffffffffffffffffffffffffff82141561023c5761023b610247565b5b600182019050919050565b7f4e487b7100000000000000000000000000000000000000000000000000000000600052601160045260246000fd5b7f4e487b7100000000000000000000000000000000000000000000000000000000600052602260045260246000fd5b610343806102b46000396000f3fe608060405234801561001057600080fd5b50600436106100365760003560e01c80632d35a8a21461003b5780633477ee2e14610059575b600080fd5b61004361008b565b60405161005091906101cd565b60405180910390f35b610073600480360381019061006e9190610158565b610091565b604051610082939291906101e8565b60405180910390f35b60015481565b60006020528060005260406000206000915090508060000154908060010180546100ba9061027f565b80601f01602080910402602001604051908101604052809291908181526020018280546100e69061027f565b80156101335780601f1061010857610100808354040283529160200191610133565b820191906000526020600020905b81548152906001019060200180831161011657829003601f168201915b5050505050908060020154905083565b600081359050610152816102f6565b92915050565b60006020828403121561016e5761016d6102e0565b5b600061017c84828501610143565b91505092915050565b600061019082610226565b61019a8185610231565b93506101aa81856020860161024c565b6101b3816102e5565b840191505092915050565b6101c781610242565b82525050565b60006020820190506101e260008301846101be565b92915050565b60006060820190506101fd60008301866101be565b818103602083015261020f8185610185565b905061021e60408301846101be565b949350505050565b600081519050919050565b600082825260208201905092915050565b6000819050919050565b60005b8381101561026a57808201518184015260208101905061024f565b83811115610279576000848401525b50505050565b6000600282049050600182168061029757607f821691505b602082108114156102ab576102aa6102b1565b5b50919050565b7f4e487b7100000000000000000000000000000000000000000000000000000000600052602260045260246000fd5b600080fd5b6000601f19601f8301169050919050565b6102ff81610242565b811461030a57600080fd5b5056fea2646970667358221220158e54ecdbc0ff3abffd0ec9cecb1091ed3cc596b50e79232e39074ab7c99c9164736f6c63430008070033",
  "immutableReferences": {},
  "source": "pragma solidity ^0.8;\n\ncontract Election {\n\n    //Model candidate\n    struct Candidate {\n        uint id;\n        string name;\n        uint voteCount;\n    }\n\n    //fetch candidates\n    mapping(uint => Candidate) public candidates;\n    //store candidates count\n    uint public candidatesCount;\n\n    //Constructor\n    constructor() {  \n        addCandidate(\"Candidate 1\");\n        addCandidate(\"Candidate 2\");\n    }\n\n    function addCandidate(string memory _name) private {\n        candidatesCount ++;\n        candidates[candidatesCount] =  Candidate(candidatesCount, _name, 0);\n    } \n}",
  "sourcePath": "/Users/unmesh/DappProjects/election-dapp/contracts/Election.sol",
  "compiler": {
    "name": "solc",
    "version": "0.8.7+commit.e28d00a7.Emscripten.clang"
  },
  "schemaVersion": "3.4.1",
  "updatedAt": "2021-08-26T05:51:08.167Z",
  "networkType": "ethereum",
  "devdoc": {
    "kind": "dev",
    "methods": {},
    "version": 1
  },
  "userdoc": {
    "kind": "user",
    "methods": {},
    "version": 1
  }
}